{
  "_format": "hh-sol-artifact-1",
  "contractName": "NFT",
  "sourceName": "contracts/NFT.sol",
  "abi": [
    {
      "inputs": [],
      "stateMutability": "nonpayable",
      "type": "constructor"
    },
    {
      "anonymous": false,
      "inputs": [
        {
          "indexed": true,
          "internalType": "address",
          "name": "owner",
          "type": "address"
        },
        {
          "indexed": true,
          "internalType": "address",
          "name": "approved",
          "type": "address"
        },
        {
          "indexed": true,
          "internalType": "uint256",
          "name": "tokenId",
          "type": "uint256"
        }
      ],
      "name": "Approval",
      "type": "event"
    },
    {
      "anonymous": false,
      "inputs": [
        {
          "indexed": true,
          "internalType": "address",
          "name": "owner",
          "type": "address"
        },
        {
          "indexed": true,
          "internalType": "address",
          "name": "operator",
          "type": "address"
        },
        {
          "indexed": false,
          "internalType": "bool",
          "name": "approved",
          "type": "bool"
        }
      ],
      "name": "ApprovalForAll",
      "type": "event"
    },
    {
      "anonymous": false,
      "inputs": [
        {
          "indexed": true,
          "internalType": "address",
          "name": "previousOwner",
          "type": "address"
        },
        {
          "indexed": true,
          "internalType": "address",
          "name": "newOwner",
          "type": "address"
        }
      ],
      "name": "OwnershipTransferred",
      "type": "event"
    },
    {
      "anonymous": false,
      "inputs": [
        {
          "indexed": false,
          "internalType": "address",
          "name": "account",
          "type": "address"
        }
      ],
      "name": "Paused",
      "type": "event"
    },
    {
      "anonymous": false,
      "inputs": [
        {
          "indexed": true,
          "internalType": "address",
          "name": "from",
          "type": "address"
        },
        {
          "indexed": true,
          "internalType": "address",
          "name": "to",
          "type": "address"
        },
        {
          "indexed": true,
          "internalType": "uint256",
          "name": "tokenId",
          "type": "uint256"
        }
      ],
      "name": "Transfer",
      "type": "event"
    },
    {
      "anonymous": false,
      "inputs": [
        {
          "indexed": false,
          "internalType": "address",
          "name": "account",
          "type": "address"
        }
      ],
      "name": "Unpaused",
      "type": "event"
    },
    {
      "inputs": [
        {
          "internalType": "address",
          "name": "to",
          "type": "address"
        },
        {
          "internalType": "uint256",
          "name": "tokenId",
          "type": "uint256"
        }
      ],
      "name": "approve",
      "outputs": [],
      "stateMutability": "nonpayable",
      "type": "function"
    },
    {
      "inputs": [
        {
          "internalType": "address",
          "name": "owner",
          "type": "address"
        }
      ],
      "name": "balanceOf",
      "outputs": [
        {
          "internalType": "uint256",
          "name": "",
          "type": "uint256"
        }
      ],
      "stateMutability": "view",
      "type": "function"
    },
    {
      "inputs": [
        {
          "internalType": "uint256",
          "name": "tokenId",
          "type": "uint256"
        }
      ],
      "name": "getApproved",
      "outputs": [
        {
          "internalType": "address",
          "name": "",
          "type": "address"
        }
      ],
      "stateMutability": "view",
      "type": "function"
    },
    {
      "inputs": [
        {
          "internalType": "address",
          "name": "owner",
          "type": "address"
        },
        {
          "internalType": "address",
          "name": "operator",
          "type": "address"
        }
      ],
      "name": "isApprovedForAll",
      "outputs": [
        {
          "internalType": "bool",
          "name": "",
          "type": "bool"
        }
      ],
      "stateMutability": "view",
      "type": "function"
    },
    {
      "inputs": [],
      "name": "name",
      "outputs": [
        {
          "internalType": "string",
          "name": "",
          "type": "string"
        }
      ],
      "stateMutability": "view",
      "type": "function"
    },
    {
      "inputs": [],
      "name": "owner",
      "outputs": [
        {
          "internalType": "address",
          "name": "",
          "type": "address"
        }
      ],
      "stateMutability": "view",
      "type": "function"
    },
    {
      "inputs": [
        {
          "internalType": "uint256",
          "name": "tokenId",
          "type": "uint256"
        }
      ],
      "name": "ownerOf",
      "outputs": [
        {
          "internalType": "address",
          "name": "",
          "type": "address"
        }
      ],
      "stateMutability": "view",
      "type": "function"
    },
    {
      "inputs": [],
      "name": "pause",
      "outputs": [],
      "stateMutability": "nonpayable",
      "type": "function"
    },
    {
      "inputs": [],
      "name": "paused",
      "outputs": [
        {
          "internalType": "bool",
          "name": "",
          "type": "bool"
        }
      ],
      "stateMutability": "view",
      "type": "function"
    },
    {
      "inputs": [],
      "name": "renounceOwnership",
      "outputs": [],
      "stateMutability": "nonpayable",
      "type": "function"
    },
    {
      "inputs": [
        {
          "internalType": "address",
          "name": "to",
          "type": "address"
        },
        {
          "internalType": "string",
          "name": "uri",
          "type": "string"
        }
      ],
      "name": "safeMint",
      "outputs": [],
      "stateMutability": "payable",
      "type": "function"
    },
    {
      "inputs": [
        {
          "internalType": "address",
          "name": "from",
          "type": "address"
        },
        {
          "internalType": "address",
          "name": "to",
          "type": "address"
        },
        {
          "internalType": "uint256",
          "name": "tokenId",
          "type": "uint256"
        }
      ],
      "name": "safeTransferFrom",
      "outputs": [],
      "stateMutability": "nonpayable",
      "type": "function"
    },
    {
      "inputs": [
        {
          "internalType": "address",
          "name": "from",
          "type": "address"
        },
        {
          "internalType": "address",
          "name": "to",
          "type": "address"
        },
        {
          "internalType": "uint256",
          "name": "tokenId",
          "type": "uint256"
        },
        {
          "internalType": "bytes",
          "name": "data",
          "type": "bytes"
        }
      ],
      "name": "safeTransferFrom",
      "outputs": [],
      "stateMutability": "nonpayable",
      "type": "function"
    },
    {
      "inputs": [
        {
          "internalType": "address",
          "name": "operator",
          "type": "address"
        },
        {
          "internalType": "bool",
          "name": "approved",
          "type": "bool"
        }
      ],
      "name": "setApprovalForAll",
      "outputs": [],
      "stateMutability": "nonpayable",
      "type": "function"
    },
    {
      "inputs": [
        {
          "internalType": "bytes4",
          "name": "interfaceId",
          "type": "bytes4"
        }
      ],
      "name": "supportsInterface",
      "outputs": [
        {
          "internalType": "bool",
          "name": "",
          "type": "bool"
        }
      ],
      "stateMutability": "view",
      "type": "function"
    },
    {
      "inputs": [],
      "name": "symbol",
      "outputs": [
        {
          "internalType": "string",
          "name": "",
          "type": "string"
        }
      ],
      "stateMutability": "view",
      "type": "function"
    },
    {
      "inputs": [
        {
          "internalType": "uint256",
          "name": "tokenId",
          "type": "uint256"
        }
      ],
      "name": "tokenURI",
      "outputs": [
        {
          "internalType": "string",
          "name": "",
          "type": "string"
        }
      ],
      "stateMutability": "view",
      "type": "function"
    },
    {
      "inputs": [
        {
          "internalType": "address",
          "name": "from",
          "type": "address"
        },
        {
          "internalType": "address",
          "name": "to",
          "type": "address"
        },
        {
          "internalType": "uint256",
          "name": "tokenId",
          "type": "uint256"
        }
      ],
      "name": "transferFrom",
      "outputs": [],
      "stateMutability": "nonpayable",
      "type": "function"
    },
    {
      "inputs": [
        {
          "internalType": "address",
          "name": "newOwner",
          "type": "address"
        }
      ],
      "name": "transferOwnership",
      "outputs": [],
      "stateMutability": "nonpayable",
      "type": "function"
    },
    {
      "inputs": [],
      "name": "unpause",
      "outputs": [],
      "stateMutability": "nonpayable",
      "type": "function"
    }
  ],
  "bytecode": "0x60806040523480156200001157600080fd5b506040518060400160405280600381526020017f4e465400000000000000000000000000000000000000000000000000000000008152506040518060400160405280600381526020017f4d4b50000000000000000000000000000000000000000000000000000000000081525081600090816200008f91906200042d565b508060019081620000a191906200042d565b5050506000600760006101000a81548160ff021916908315150217905550620000df620000d3620000e560201b60201c565b620000ed60201b60201c565b62000514565b600033905090565b6000600760019054906101000a900473ffffffffffffffffffffffffffffffffffffffff16905081600760016101000a81548173ffffffffffffffffffffffffffffffffffffffff021916908373ffffffffffffffffffffffffffffffffffffffff1602179055508173ffffffffffffffffffffffffffffffffffffffff168173ffffffffffffffffffffffffffffffffffffffff167f8be0079c531659141344cd1fd0a4f28419497f9722a3daafe3b4186f6b6457e060405160405180910390a35050565b600081519050919050565b7f4e487b7100000000000000000000000000000000000000000000000000000000600052604160045260246000fd5b7f4e487b7100000000000000000000000000000000000000000000000000000000600052602260045260246000fd5b600060028204905060018216806200023557607f821691505b6020821081036200024b576200024a620001ed565b5b50919050565b60008190508160005260206000209050919050565b60006020601f8301049050919050565b600082821b905092915050565b600060088302620002b57fffffffffffffffffffffffffffffffffffffffffffffffffffffffffffffffff8262000276565b620002c1868362000276565b95508019841693508086168417925050509392505050565b6000819050919050565b6000819050919050565b60006200030e620003086200030284620002d9565b620002e3565b620002d9565b9050919050565b6000819050919050565b6200032a83620002ed565b62000342620003398262000315565b84845462000283565b825550505050565b600090565b620003596200034a565b620003668184846200031f565b505050565b5b818110156200038e57620003826000826200034f565b6001810190506200036c565b5050565b601f821115620003dd57620003a78162000251565b620003b28462000266565b81016020851015620003c2578190505b620003da620003d18562000266565b8301826200036b565b50505b505050565b600082821c905092915050565b60006200040260001984600802620003e2565b1980831691505092915050565b60006200041d8383620003ef565b9150826002028217905092915050565b6200043882620001b3565b67ffffffffffffffff811115620004545762000453620001be565b5b6200046082546200021c565b6200046d82828562000392565b600060209050601f831160018114620004a5576000841562000490578287015190505b6200049c85826200040f565b8655506200050c565b601f198416620004b58662000251565b60005b82811015620004df57848901518255600182019150602085019450602081019050620004b8565b86831015620004ff5784890151620004fb601f891682620003ef565b8355505b6001600288020188555050505b505050505050565b6133a280620005246000396000f3fe60806040526004361061011f5760003560e01c8063715018a6116100a0578063b88d4fde11610064578063b88d4fde146103ad578063c87b56dd146103d6578063d204c45e14610413578063e985e9c51461042f578063f2fde38b1461046c5761011f565b8063715018a6146103005780638456cb59146103175780638da5cb5b1461032e57806395d89b4114610359578063a22cb465146103845761011f565b80633f4ba83a116100e75780633f4ba83a1461021b57806342842e0e146102325780635c975abb1461025b5780636352211e1461028657806370a08231146102c35761011f565b806301ffc9a71461012457806306fdde0314610161578063081812fc1461018c578063095ea7b3146101c957806323b872dd146101f2575b600080fd5b34801561013057600080fd5b5061014b60048036038101906101469190612024565b610495565b604051610158919061206c565b60405180910390f35b34801561016d57600080fd5b50610176610577565b6040516101839190612117565b60405180910390f35b34801561019857600080fd5b506101b360048036038101906101ae919061216f565b610609565b6040516101c091906121dd565b60405180910390f35b3480156101d557600080fd5b506101f060048036038101906101eb9190612224565b61064f565b005b3480156101fe57600080fd5b5061021960048036038101906102149190612264565b610766565b005b34801561022757600080fd5b506102306107c6565b005b34801561023e57600080fd5b5061025960048036038101906102549190612264565b6107d8565b005b34801561026757600080fd5b506102706107f8565b60405161027d919061206c565b60405180910390f35b34801561029257600080fd5b506102ad60048036038101906102a8919061216f565b61080f565b6040516102ba91906121dd565b60405180910390f35b3480156102cf57600080fd5b506102ea60048036038101906102e591906122b7565b610895565b6040516102f791906122f3565b60405180910390f35b34801561030c57600080fd5b5061031561094c565b005b34801561032357600080fd5b5061032c610960565b005b34801561033a57600080fd5b50610343610972565b60405161035091906121dd565b60405180910390f35b34801561036557600080fd5b5061036e61099c565b60405161037b9190612117565b60405180910390f35b34801561039057600080fd5b506103ab60048036038101906103a6919061233a565b610a2e565b005b3480156103b957600080fd5b506103d460048036038101906103cf91906124af565b610a44565b005b3480156103e257600080fd5b506103fd60048036038101906103f8919061216f565b610aa6565b60405161040a9190612117565b60405180910390f35b61042d600480360381019061042891906125d3565b610ab8565b005b34801561043b57600080fd5b506104566004803603810190610451919061262f565b610af1565b604051610463919061206c565b60405180910390f35b34801561047857600080fd5b50610493600480360381019061048e91906122b7565b610b85565b005b60007f80ac58cd000000000000000000000000000000000000000000000000000000007bffffffffffffffffffffffffffffffffffffffffffffffffffffffff1916827bffffffffffffffffffffffffffffffffffffffffffffffffffffffff1916148061056057507f5b5e139f000000000000000000000000000000000000000000000000000000007bffffffffffffffffffffffffffffffffffffffffffffffffffffffff1916827bffffffffffffffffffffffffffffffffffffffffffffffffffffffff1916145b80610570575061056f82610c08565b5b9050919050565b6060600080546105869061269e565b80601f01602080910402602001604051908101604052809291908181526020018280546105b29061269e565b80156105ff5780601f106105d4576101008083540402835291602001916105ff565b820191906000526020600020905b8154815290600101906020018083116105e257829003601f168201915b5050505050905090565b600061061482610c72565b6004600083815260200190815260200160002060009054906101000a900473ffffffffffffffffffffffffffffffffffffffff169050919050565b600061065a8261080f565b90508073ffffffffffffffffffffffffffffffffffffffff168373ffffffffffffffffffffffffffffffffffffffff16036106ca576040517f08c379a00000000000000000000000000000000000000000000000000000000081526004016106c190612741565b60405180910390fd5b8073ffffffffffffffffffffffffffffffffffffffff166106e9610cbd565b73ffffffffffffffffffffffffffffffffffffffff161480610718575061071781610712610cbd565b610af1565b5b610757576040517f08c379a000000000000000000000000000000000000000000000000000000000815260040161074e906127d3565b60405180910390fd5b6107618383610cc5565b505050565b610777610771610cbd565b82610d7e565b6107b6576040517f08c379a00000000000000000000000000000000000000000000000000000000081526004016107ad90612865565b60405180910390fd5b6107c1838383610e13565b505050565b6107ce61110c565b6107d661118a565b565b6107f383838360405180602001604052806000815250610a44565b505050565b6000600760009054906101000a900460ff16905090565b60008061081b836111ed565b9050600073ffffffffffffffffffffffffffffffffffffffff168173ffffffffffffffffffffffffffffffffffffffff160361088c576040517f08c379a0000000000000000000000000000000000000000000000000000000008152600401610883906128d1565b60405180910390fd5b80915050919050565b60008073ffffffffffffffffffffffffffffffffffffffff168273ffffffffffffffffffffffffffffffffffffffff1603610905576040517f08c379a00000000000000000000000000000000000000000000000000000000081526004016108fc90612963565b60405180910390fd5b600360008373ffffffffffffffffffffffffffffffffffffffff1673ffffffffffffffffffffffffffffffffffffffff168152602001908152602001600020549050919050565b61095461110c565b61095e600061122a565b565b61096861110c565b6109706112f0565b565b6000600760019054906101000a900473ffffffffffffffffffffffffffffffffffffffff16905090565b6060600180546109ab9061269e565b80601f01602080910402602001604051908101604052809291908181526020018280546109d79061269e565b8015610a245780601f106109f957610100808354040283529160200191610a24565b820191906000526020600020905b815481529060010190602001808311610a0757829003601f168201915b5050505050905090565b610a40610a39610cbd565b8383611353565b5050565b610a55610a4f610cbd565b83610d7e565b610a94576040517f08c379a0000000000000000000000000000000000000000000000000000000008152600401610a8b90612865565b60405180910390fd5b610aa0848484846114bf565b50505050565b6060610ab18261151b565b9050919050565b610ac061110c565b6000610acc600861162d565b9050610ad8600861163b565b610ae28382611651565b610aec818361166f565b505050565b6000600560008473ffffffffffffffffffffffffffffffffffffffff1673ffffffffffffffffffffffffffffffffffffffff16815260200190815260200160002060008373ffffffffffffffffffffffffffffffffffffffff1673ffffffffffffffffffffffffffffffffffffffff16815260200190815260200160002060009054906101000a900460ff16905092915050565b610b8d61110c565b600073ffffffffffffffffffffffffffffffffffffffff168173ffffffffffffffffffffffffffffffffffffffff1603610bfc576040517f08c379a0000000000000000000000000000000000000000000000000000000008152600401610bf3906129f5565b60405180910390fd5b610c058161122a565b50565b60007f01ffc9a7000000000000000000000000000000000000000000000000000000007bffffffffffffffffffffffffffffffffffffffffffffffffffffffff1916827bffffffffffffffffffffffffffffffffffffffffffffffffffffffff1916149050919050565b610c7b816116dc565b610cba576040517f08c379a0000000000000000000000000000000000000000000000000000000008152600401610cb1906128d1565b60405180910390fd5b50565b600033905090565b816004600083815260200190815260200160002060006101000a81548173ffffffffffffffffffffffffffffffffffffffff021916908373ffffffffffffffffffffffffffffffffffffffff160217905550808273ffffffffffffffffffffffffffffffffffffffff16610d388361080f565b73ffffffffffffffffffffffffffffffffffffffff167f8c5be1e5ebec7d5bd14f71427d1e84f3dd0314c0f7b2291e5b200ac8c7c3b92560405160405180910390a45050565b600080610d8a8361080f565b90508073ffffffffffffffffffffffffffffffffffffffff168473ffffffffffffffffffffffffffffffffffffffff161480610dcc5750610dcb8185610af1565b5b80610e0a57508373ffffffffffffffffffffffffffffffffffffffff16610df284610609565b73ffffffffffffffffffffffffffffffffffffffff16145b91505092915050565b8273ffffffffffffffffffffffffffffffffffffffff16610e338261080f565b73ffffffffffffffffffffffffffffffffffffffff1614610e89576040517f08c379a0000000000000000000000000000000000000000000000000000000008152600401610e8090612a87565b60405180910390fd5b600073ffffffffffffffffffffffffffffffffffffffff168273ffffffffffffffffffffffffffffffffffffffff1603610ef8576040517f08c379a0000000000000000000000000000000000000000000000000000000008152600401610eef90612b19565b60405180910390fd5b610f05838383600161171d565b8273ffffffffffffffffffffffffffffffffffffffff16610f258261080f565b73ffffffffffffffffffffffffffffffffffffffff1614610f7b576040517f08c379a0000000000000000000000000000000000000000000000000000000008152600401610f7290612a87565b60405180910390fd5b6004600082815260200190815260200160002060006101000a81549073ffffffffffffffffffffffffffffffffffffffff02191690556001600360008573ffffffffffffffffffffffffffffffffffffffff1673ffffffffffffffffffffffffffffffffffffffff168152602001908152602001600020600082825403925050819055506001600360008473ffffffffffffffffffffffffffffffffffffffff1673ffffffffffffffffffffffffffffffffffffffff16815260200190815260200160002060008282540192505081905550816002600083815260200190815260200160002060006101000a81548173ffffffffffffffffffffffffffffffffffffffff021916908373ffffffffffffffffffffffffffffffffffffffff160217905550808273ffffffffffffffffffffffffffffffffffffffff168473ffffffffffffffffffffffffffffffffffffffff167fddf252ad1be2c89b69c2b068fc378daa952ba7f163c4a11628f55a4df523b3ef60405160405180910390a46111078383836001611737565b505050565b611114610cbd565b73ffffffffffffffffffffffffffffffffffffffff16611132610972565b73ffffffffffffffffffffffffffffffffffffffff1614611188576040517f08c379a000000000000000000000000000000000000000000000000000000000815260040161117f90612b85565b60405180910390fd5b565b61119261173d565b6000600760006101000a81548160ff0219169083151502179055507f5db9ee0a495bf2e6ff9c91a7834c1ba4fdd244a5e8aa4e537bd38aeae4b073aa6111d6610cbd565b6040516111e391906121dd565b60405180910390a1565b60006002600083815260200190815260200160002060009054906101000a900473ffffffffffffffffffffffffffffffffffffffff169050919050565b6000600760019054906101000a900473ffffffffffffffffffffffffffffffffffffffff16905081600760016101000a81548173ffffffffffffffffffffffffffffffffffffffff021916908373ffffffffffffffffffffffffffffffffffffffff1602179055508173ffffffffffffffffffffffffffffffffffffffff168173ffffffffffffffffffffffffffffffffffffffff167f8be0079c531659141344cd1fd0a4f28419497f9722a3daafe3b4186f6b6457e060405160405180910390a35050565b6112f8611786565b6001600760006101000a81548160ff0219169083151502179055507f62e78cea01bee320cd4e420270b5ea74000d11b0c9f74754ebdbfc544b05a25861133c610cbd565b60405161134991906121dd565b60405180910390a1565b8173ffffffffffffffffffffffffffffffffffffffff168373ffffffffffffffffffffffffffffffffffffffff16036113c1576040517f08c379a00000000000000000000000000000000000000000000000000000000081526004016113b890612bf1565b60405180910390fd5b80600560008573ffffffffffffffffffffffffffffffffffffffff1673ffffffffffffffffffffffffffffffffffffffff16815260200190815260200160002060008473ffffffffffffffffffffffffffffffffffffffff1673ffffffffffffffffffffffffffffffffffffffff16815260200190815260200160002060006101000a81548160ff0219169083151502179055508173ffffffffffffffffffffffffffffffffffffffff168373ffffffffffffffffffffffffffffffffffffffff167f17307eab39ab6107e8899845ad3d59bd9653f200f220920489ca2b5937696c31836040516114b2919061206c565b60405180910390a3505050565b6114ca848484610e13565b6114d6848484846117d0565b611515576040517f08c379a000000000000000000000000000000000000000000000000000000000815260040161150c90612c83565b60405180910390fd5b50505050565b606061152682610c72565b60006006600084815260200190815260200160002080546115469061269e565b80601f01602080910402602001604051908101604052809291908181526020018280546115729061269e565b80156115bf5780601f10611594576101008083540402835291602001916115bf565b820191906000526020600020905b8154815290600101906020018083116115a257829003601f168201915b5050505050905060006115d0611957565b905060008151036115e5578192505050611628565b60008251111561161a578082604051602001611602929190612cdf565b60405160208183030381529060405292505050611628565b6116238461196e565b925050505b919050565b600081600001549050919050565b6001816000016000828254019250508190555050565b61166b8282604051806020016040528060008152506119d6565b5050565b611678826116dc565b6116b7576040517f08c379a00000000000000000000000000000000000000000000000000000000081526004016116ae90612d75565b60405180910390fd5b806006600084815260200190815260200160002090816116d79190612f41565b505050565b60008073ffffffffffffffffffffffffffffffffffffffff166116fe836111ed565b73ffffffffffffffffffffffffffffffffffffffff1614159050919050565b611725611786565b61173184848484611a31565b50505050565b50505050565b6117456107f8565b611784576040517f08c379a000000000000000000000000000000000000000000000000000000000815260040161177b9061305f565b60405180910390fd5b565b61178e6107f8565b156117ce576040517f08c379a00000000000000000000000000000000000000000000000000000000081526004016117c5906130cb565b60405180910390fd5b565b60006117f18473ffffffffffffffffffffffffffffffffffffffff16611b57565b1561194a578373ffffffffffffffffffffffffffffffffffffffff1663150b7a0261181a610cbd565b8786866040518563ffffffff1660e01b815260040161183c9493929190613140565b6020604051808303816000875af192505050801561187857506040513d601f19601f8201168201806040525081019061187591906131a1565b60015b6118fa573d80600081146118a8576040519150601f19603f3d011682016040523d82523d6000602084013e6118ad565b606091505b5060008151036118f2576040517f08c379a00000000000000000000000000000000000000000000000000000000081526004016118e990612c83565b60405180910390fd5b805181602001fd5b63150b7a0260e01b7bffffffffffffffffffffffffffffffffffffffffffffffffffffffff1916817bffffffffffffffffffffffffffffffffffffffffffffffffffffffff19161491505061194f565b600190505b949350505050565b606060405180602001604052806000815250905090565b606061197982610c72565b6000611983611957565b905060008151116119a357604051806020016040528060008152506119ce565b806119ad84611b7a565b6040516020016119be929190612cdf565b6040516020818303038152906040525b915050919050565b6119e08383611c48565b6119ed60008484846117d0565b611a2c576040517f08c379a0000000000000000000000000000000000000000000000000000000008152600401611a2390612c83565b60405180910390fd5b505050565b6001811115611b5157600073ffffffffffffffffffffffffffffffffffffffff168473ffffffffffffffffffffffffffffffffffffffff1614611ac55780600360008673ffffffffffffffffffffffffffffffffffffffff1673ffffffffffffffffffffffffffffffffffffffff1681526020019081526020016000206000828254611abd91906131fd565b925050819055505b600073ffffffffffffffffffffffffffffffffffffffff168373ffffffffffffffffffffffffffffffffffffffff1614611b505780600360008573ffffffffffffffffffffffffffffffffffffffff1673ffffffffffffffffffffffffffffffffffffffff1681526020019081526020016000206000828254611b489190613231565b925050819055505b5b50505050565b6000808273ffffffffffffffffffffffffffffffffffffffff163b119050919050565b606060006001611b8984611e65565b01905060008167ffffffffffffffff811115611ba857611ba7612384565b5b6040519080825280601f01601f191660200182016040528015611bda5781602001600182028036833780820191505090505b509050600082602001820190505b600115611c3d578080600190039150507f3031323334353637383961626364656600000000000000000000000000000000600a86061a8153600a8581611c3157611c30613265565b5b04945060008503611be8575b819350505050919050565b600073ffffffffffffffffffffffffffffffffffffffff168273ffffffffffffffffffffffffffffffffffffffff1603611cb7576040517f08c379a0000000000000000000000000000000000000000000000000000000008152600401611cae906132e0565b60405180910390fd5b611cc0816116dc565b15611d00576040517f08c379a0000000000000000000000000000000000000000000000000000000008152600401611cf79061334c565b60405180910390fd5b611d0e60008383600161171d565b611d17816116dc565b15611d57576040517f08c379a0000000000000000000000000000000000000000000000000000000008152600401611d4e9061334c565b60405180910390fd5b6001600360008473ffffffffffffffffffffffffffffffffffffffff1673ffffffffffffffffffffffffffffffffffffffff16815260200190815260200160002060008282540192505081905550816002600083815260200190815260200160002060006101000a81548173ffffffffffffffffffffffffffffffffffffffff021916908373ffffffffffffffffffffffffffffffffffffffff160217905550808273ffffffffffffffffffffffffffffffffffffffff16600073ffffffffffffffffffffffffffffffffffffffff167fddf252ad1be2c89b69c2b068fc378daa952ba7f163c4a11628f55a4df523b3ef60405160405180910390a4611e61600083836001611737565b5050565b600080600090507a184f03e93ff9f4daa797ed6e38ed64bf6a1f0100000000000000008310611ec3577a184f03e93ff9f4daa797ed6e38ed64bf6a1f0100000000000000008381611eb957611eb8613265565b5b0492506040810190505b6d04ee2d6d415b85acef81000000008310611f00576d04ee2d6d415b85acef81000000008381611ef657611ef5613265565b5b0492506020810190505b662386f26fc100008310611f2f57662386f26fc100008381611f2557611f24613265565b5b0492506010810190505b6305f5e1008310611f58576305f5e1008381611f4e57611f4d613265565b5b0492506008810190505b6127108310611f7d576127108381611f7357611f72613265565b5b0492506004810190505b60648310611fa05760648381611f9657611f95613265565b5b0492506002810190505b600a8310611faf576001810190505b80915050919050565b6000604051905090565b600080fd5b600080fd5b60007fffffffff0000000000000000000000000000000000000000000000000000000082169050919050565b61200181611fcc565b811461200c57600080fd5b50565b60008135905061201e81611ff8565b92915050565b60006020828403121561203a57612039611fc2565b5b60006120488482850161200f565b91505092915050565b60008115159050919050565b61206681612051565b82525050565b6000602082019050612081600083018461205d565b92915050565b600081519050919050565b600082825260208201905092915050565b60005b838110156120c15780820151818401526020810190506120a6565b60008484015250505050565b6000601f19601f8301169050919050565b60006120e982612087565b6120f38185612092565b93506121038185602086016120a3565b61210c816120cd565b840191505092915050565b6000602082019050818103600083015261213181846120de565b905092915050565b6000819050919050565b61214c81612139565b811461215757600080fd5b50565b60008135905061216981612143565b92915050565b60006020828403121561218557612184611fc2565b5b60006121938482850161215a565b91505092915050565b600073ffffffffffffffffffffffffffffffffffffffff82169050919050565b60006121c78261219c565b9050919050565b6121d7816121bc565b82525050565b60006020820190506121f260008301846121ce565b92915050565b612201816121bc565b811461220c57600080fd5b50565b60008135905061221e816121f8565b92915050565b6000806040838503121561223b5761223a611fc2565b5b60006122498582860161220f565b925050602061225a8582860161215a565b9150509250929050565b60008060006060848603121561227d5761227c611fc2565b5b600061228b8682870161220f565b935050602061229c8682870161220f565b92505060406122ad8682870161215a565b9150509250925092565b6000602082840312156122cd576122cc611fc2565b5b60006122db8482850161220f565b91505092915050565b6122ed81612139565b82525050565b600060208201905061230860008301846122e4565b92915050565b61231781612051565b811461232257600080fd5b50565b6000813590506123348161230e565b92915050565b6000806040838503121561235157612350611fc2565b5b600061235f8582860161220f565b925050602061237085828601612325565b9150509250929050565b600080fd5b600080fd5b7f4e487b7100000000000000000000000000000000000000000000000000000000600052604160045260246000fd5b6123bc826120cd565b810181811067ffffffffffffffff821117156123db576123da612384565b5b80604052505050565b60006123ee611fb8565b90506123fa82826123b3565b919050565b600067ffffffffffffffff82111561241a57612419612384565b5b612423826120cd565b9050602081019050919050565b82818337600083830152505050565b600061245261244d846123ff565b6123e4565b90508281526020810184848401111561246e5761246d61237f565b5b612479848285612430565b509392505050565b600082601f8301126124965761249561237a565b5b81356124a684826020860161243f565b91505092915050565b600080600080608085870312156124c9576124c8611fc2565b5b60006124d78782880161220f565b94505060206124e88782880161220f565b93505060406124f98782880161215a565b925050606085013567ffffffffffffffff81111561251a57612519611fc7565b5b61252687828801612481565b91505092959194509250565b600067ffffffffffffffff82111561254d5761254c612384565b5b612556826120cd565b9050602081019050919050565b600061257661257184612532565b6123e4565b9050828152602081018484840111156125925761259161237f565b5b61259d848285612430565b509392505050565b600082601f8301126125ba576125b961237a565b5b81356125ca848260208601612563565b91505092915050565b600080604083850312156125ea576125e9611fc2565b5b60006125f88582860161220f565b925050602083013567ffffffffffffffff81111561261957612618611fc7565b5b612625858286016125a5565b9150509250929050565b6000806040838503121561264657612645611fc2565b5b60006126548582860161220f565b92505060206126658582860161220f565b9150509250929050565b7f4e487b7100000000000000000000000000000000000000000000000000000000600052602260045260246000fd5b600060028204905060018216806126b657607f821691505b6020821081036126c9576126c861266f565b5b50919050565b7f4552433732313a20617070726f76616c20746f2063757272656e74206f776e6560008201527f7200000000000000000000000000000000000000000000000000000000000000602082015250565b600061272b602183612092565b9150612736826126cf565b604082019050919050565b6000602082019050818103600083015261275a8161271e565b9050919050565b7f4552433732313a20617070726f76652063616c6c6572206973206e6f7420746f60008201527f6b656e206f776e6572206f7220617070726f76656420666f7220616c6c000000602082015250565b60006127bd603d83612092565b91506127c882612761565b604082019050919050565b600060208201905081810360008301526127ec816127b0565b9050919050565b7f4552433732313a2063616c6c6572206973206e6f7420746f6b656e206f776e6560008201527f72206f7220617070726f76656400000000000000000000000000000000000000602082015250565b600061284f602d83612092565b915061285a826127f3565b604082019050919050565b6000602082019050818103600083015261287e81612842565b9050919050565b7f4552433732313a20696e76616c696420746f6b656e2049440000000000000000600082015250565b60006128bb601883612092565b91506128c682612885565b602082019050919050565b600060208201905081810360008301526128ea816128ae565b9050919050565b7f4552433732313a2061646472657373207a65726f206973206e6f74206120766160008201527f6c6964206f776e65720000000000000000000000000000000000000000000000602082015250565b600061294d602983612092565b9150612958826128f1565b604082019050919050565b6000602082019050818103600083015261297c81612940565b9050919050565b7f4f776e61626c653a206e6577206f776e657220697320746865207a65726f206160008201527f6464726573730000000000000000000000000000000000000000000000000000602082015250565b60006129df602683612092565b91506129ea82612983565b604082019050919050565b60006020820190508181036000830152612a0e816129d2565b9050919050565b7f4552433732313a207472616e736665722066726f6d20696e636f72726563742060008201527f6f776e6572000000000000000000000000000000000000000000000000000000602082015250565b6000612a71602583612092565b9150612a7c82612a15565b604082019050919050565b60006020820190508181036000830152612aa081612a64565b9050919050565b7f4552433732313a207472616e7366657220746f20746865207a65726f2061646460008201527f7265737300000000000000000000000000000000000000000000000000000000602082015250565b6000612b03602483612092565b9150612b0e82612aa7565b604082019050919050565b60006020820190508181036000830152612b3281612af6565b9050919050565b7f4f776e61626c653a2063616c6c6572206973206e6f7420746865206f776e6572600082015250565b6000612b6f602083612092565b9150612b7a82612b39565b602082019050919050565b60006020820190508181036000830152612b9e81612b62565b9050919050565b7f4552433732313a20617070726f766520746f2063616c6c657200000000000000600082015250565b6000612bdb601983612092565b9150612be682612ba5565b602082019050919050565b60006020820190508181036000830152612c0a81612bce565b9050919050565b7f4552433732313a207472616e7366657220746f206e6f6e20455243373231526560008201527f63656976657220696d706c656d656e7465720000000000000000000000000000602082015250565b6000612c6d603283612092565b9150612c7882612c11565b604082019050919050565b60006020820190508181036000830152612c9c81612c60565b9050919050565b600081905092915050565b6000612cb982612087565b612cc38185612ca3565b9350612cd38185602086016120a3565b80840191505092915050565b6000612ceb8285612cae565b9150612cf78284612cae565b91508190509392505050565b7f45524337323155524953746f726167653a2055524920736574206f66206e6f6e60008201527f6578697374656e7420746f6b656e000000000000000000000000000000000000602082015250565b6000612d5f602e83612092565b9150612d6a82612d03565b604082019050919050565b60006020820190508181036000830152612d8e81612d52565b9050919050565b60008190508160005260206000209050919050565b60006020601f8301049050919050565b600082821b905092915050565b600060088302612df77fffffffffffffffffffffffffffffffffffffffffffffffffffffffffffffffff82612dba565b612e018683612dba565b95508019841693508086168417925050509392505050565b6000819050919050565b6000612e3e612e39612e3484612139565b612e19565b612139565b9050919050565b6000819050919050565b612e5883612e23565b612e6c612e6482612e45565b848454612dc7565b825550505050565b600090565b612e81612e74565b612e8c818484612e4f565b505050565b5b81811015612eb057612ea5600082612e79565b600181019050612e92565b5050565b601f821115612ef557612ec681612d95565b612ecf84612daa565b81016020851015612ede578190505b612ef2612eea85612daa565b830182612e91565b50505b505050565b600082821c905092915050565b6000612f1860001984600802612efa565b1980831691505092915050565b6000612f318383612f07565b9150826002028217905092915050565b612f4a82612087565b67ffffffffffffffff811115612f6357612f62612384565b5b612f6d825461269e565b612f78828285612eb4565b600060209050601f831160018114612fab5760008415612f99578287015190505b612fa38582612f25565b86555061300b565b601f198416612fb986612d95565b60005b82811015612fe157848901518255600182019150602085019450602081019050612fbc565b86831015612ffe5784890151612ffa601f891682612f07565b8355505b6001600288020188555050505b505050505050565b7f5061757361626c653a206e6f7420706175736564000000000000000000000000600082015250565b6000613049601483612092565b915061305482613013565b602082019050919050565b600060208201905081810360008301526130788161303c565b9050919050565b7f5061757361626c653a2070617573656400000000000000000000000000000000600082015250565b60006130b5601083612092565b91506130c08261307f565b602082019050919050565b600060208201905081810360008301526130e4816130a8565b9050919050565b600081519050919050565b600082825260208201905092915050565b6000613112826130eb565b61311c81856130f6565b935061312c8185602086016120a3565b613135816120cd565b840191505092915050565b600060808201905061315560008301876121ce565b61316260208301866121ce565b61316f60408301856122e4565b81810360608301526131818184613107565b905095945050505050565b60008151905061319b81611ff8565b92915050565b6000602082840312156131b7576131b6611fc2565b5b60006131c58482850161318c565b91505092915050565b7f4e487b7100000000000000000000000000000000000000000000000000000000600052601160045260246000fd5b600061320882612139565b915061321383612139565b925082820390508181111561322b5761322a6131ce565b5b92915050565b600061323c82612139565b915061324783612139565b925082820190508082111561325f5761325e6131ce565b5b92915050565b7f4e487b7100000000000000000000000000000000000000000000000000000000600052601260045260246000fd5b7f4552433732313a206d696e7420746f20746865207a65726f2061646472657373600082015250565b60006132ca602083612092565b91506132d582613294565b602082019050919050565b600060208201905081810360008301526132f9816132bd565b9050919050565b7f4552433732313a20746f6b656e20616c7265616479206d696e74656400000000600082015250565b6000613336601c83612092565b915061334182613300565b602082019050919050565b6000602082019050818103600083015261336581613329565b905091905056fea26469706673582212207a300b4704e09bc4c4e317ef1a14d351e1b33d47f9205fac45844278e652ed9564736f6c63430008110033",
  "linkReferences": {},
  "deployedLinkReferences": {}
}